{
  "contractName": "OrderRegistry",
  "abi": [
    {
      "anonymous": false,
      "inputs": [
        {
          "indexed": false,
          "name": "orderno",
          "type": "string"
        }
      ],
      "name": "OrderGenerated",
      "type": "event"
    },
    {
      "anonymous": false,
      "inputs": [
        {
          "indexed": false,
          "name": "orderno",
          "type": "string"
        }
      ],
      "name": "MfgTrigger",
      "type": "event"
    },
    {
      "anonymous": false,
      "inputs": [
        {
          "indexed": false,
          "name": "orderno",
          "type": "string"
        }
      ],
      "name": "SupplyTrigger",
      "type": "event"
    },
    {
      "anonymous": false,
      "inputs": [
        {
          "indexed": false,
          "name": "orderno",
          "type": "string"
        },
        {
          "indexed": false,
          "name": "category",
          "type": "uint256"
        },
        {
          "indexed": false,
          "name": "report",
          "type": "string"
        }
      ],
      "name": "ReportSubmit",
      "type": "event"
    },
    {
      "constant": false,
      "inputs": [
        {
          "name": "orderno",
          "type": "string"
        },
        {
          "name": "product",
          "type": "string"
        },
        {
          "name": "temp",
          "type": "string"
        },
        {
          "name": "value",
          "type": "string"
        },
        {
          "name": "quantity",
          "type": "string"
        },
        {
          "name": "delivery",
          "type": "string"
        }
      ],
      "name": "createOrder",
      "outputs": [],
      "payable": false,
      "stateMutability": "nonpayable",
      "type": "function"
    },
    {
      "constant": false,
      "inputs": [
        {
          "name": "orderno",
          "type": "string"
        },
        {
          "name": "name",
          "type": "string"
        },
        {
          "name": "delivery",
          "type": "string"
        },
        {
          "name": "value",
          "type": "string"
        },
        {
          "name": "quantity",
          "type": "string"
        }
      ],
      "name": "setDistValues",
      "outputs": [],
      "payable": false,
      "stateMutability": "nonpayable",
      "type": "function"
    },
    {
      "constant": false,
      "inputs": [
        {
          "name": "orderno",
          "type": "string"
        },
        {
          "name": "name",
          "type": "string"
        },
        {
          "name": "material",
          "type": "string"
        },
        {
          "name": "delivery",
          "type": "string"
        },
        {
          "name": "value",
          "type": "string"
        },
        {
          "name": "quantity",
          "type": "string"
        }
      ],
      "name": "setMfgValues",
      "outputs": [],
      "payable": false,
      "stateMutability": "nonpayable",
      "type": "function"
    },
    {
      "constant": false,
      "inputs": [
        {
          "name": "orderno",
          "type": "string"
        },
        {
          "name": "category",
          "type": "uint256"
        },
        {
          "name": "report",
          "type": "string"
        }
      ],
      "name": "setReport",
      "outputs": [],
      "payable": false,
      "stateMutability": "nonpayable",
      "type": "function"
    },
    {
      "constant": true,
      "inputs": [
        {
          "name": "orderno",
          "type": "string"
        },
        {
          "name": "category",
          "type": "uint256"
        }
      ],
      "name": "getReport",
      "outputs": [
        {
          "name": "",
          "type": "string"
        }
      ],
      "payable": false,
      "stateMutability": "view",
      "type": "function"
    },
    {
      "constant": true,
      "inputs": [
        {
          "name": "orderno",
          "type": "string"
        }
      ],
      "name": "fetchInitialDetails",
      "outputs": [
        {
          "name": "",
          "type": "string"
        },
        {
          "name": "",
          "type": "string"
        },
        {
          "name": "",
          "type": "string"
        },
        {
          "name": "",
          "type": "string"
        },
        {
          "name": "",
          "type": "string"
        }
      ],
      "payable": false,
      "stateMutability": "view",
      "type": "function"
    },
    {
      "constant": true,
      "inputs": [
        {
          "name": "orderno",
          "type": "string"
        }
      ],
      "name": "getDistValues",
      "outputs": [
        {
          "name": "",
          "type": "string"
        },
        {
          "name": "",
          "type": "string"
        },
        {
          "name": "",
          "type": "string"
        },
        {
          "name": "",
          "type": "string"
        }
      ],
      "payable": false,
      "stateMutability": "view",
      "type": "function"
    },
    {
      "constant": true,
      "inputs": [
        {
          "name": "orderno",
          "type": "string"
        }
      ],
      "name": "getMfgDetails",
      "outputs": [
        {
          "name": "",
          "type": "string"
        },
        {
          "name": "",
          "type": "string"
        },
        {
          "name": "",
          "type": "string"
        },
        {
          "name": "",
          "type": "string"
        },
        {
          "name": "",
          "type": "string"
        }
      ],
      "payable": false,
      "stateMutability": "view",
      "type": "function"
    }
  ],
  "bytecode": "0x608060405234801561001057600080fd5b50613548806100206000396000f3fe60806040526004361061008e576000357c0100000000000000000000000000000000000000000000000000000000900463ffffffff16806302f20b9c14610093578063365ede48146101de57806363727449146103475780636c463635146106385780637972d079146108bd578063826f8a0014610c7857806387d517c914611033578063baaa3eef14611324575b600080fd5b34801561009f57600080fd5b50610163600480360360408110156100b657600080fd5b81019080803590602001906401000000008111156100d357600080fd5b8201836020820111156100e557600080fd5b8035906020019184600183028401116401000000008311171561010757600080fd5b91908080601f016020809104026020016040519081016040528093929190818152602001838380828437600081840152601f19601f82011690508083019250505050505050919291929080359060200190929190505050611648565b6040518080602001828103825283818151815260200191508051906020019080838360005b838110156101a3578082015181840152602081019050610188565b50505050905090810190601f1680156101d05780820380516001836020036101000a031916815260200191505b509250505060405180910390f35b3480156101ea57600080fd5b506103456004803603606081101561020157600080fd5b810190808035906020019064010000000081111561021e57600080fd5b82018360208201111561023057600080fd5b8035906020019184600183028401116401000000008311171561025257600080fd5b91908080601f016020809104026020016040519081016040528093929190818152602001838380828437600081840152601f19601f82011690508083019250505050505050919291929080359060200190929190803590602001906401000000008111156102bf57600080fd5b8201836020820111156102d157600080fd5b803590602001918460018302840111640100000000831117156102f357600080fd5b91908080601f016020809104026020016040519081016040528093929190818152602001838380828437600081840152601f19601f8201169050808301925050505050505091929192905050506119ce565b005b34801561035357600080fd5b5061040d6004803603602081101561036a57600080fd5b810190808035906020019064010000000081111561038757600080fd5b82018360208201111561039957600080fd5b803590602001918460018302840111640100000000831117156103bb57600080fd5b91908080601f016020809104026020016040519081016040528093929190818152602001838380828437600081840152601f19601f820116905080830192505050505050509192919290505050611c8b565b60405180806020018060200180602001806020018060200186810386528b818151815260200191508051906020019080838360005b8381101561045d578082015181840152602081019050610442565b50505050905090810190601f16801561048a5780820380516001836020036101000a031916815260200191505b5086810385528a818151815260200191508051906020019080838360005b838110156104c35780820151818401526020810190506104a8565b50505050905090810190601f1680156104f05780820380516001836020036101000a031916815260200191505b50868103845289818151815260200191508051906020019080838360005b8381101561052957808201518184015260208101905061050e565b50505050905090810190601f1680156105565780820380516001836020036101000a031916815260200191505b50868103835288818151815260200191508051906020019080838360005b8381101561058f578082015181840152602081019050610574565b50505050905090810190601f1680156105bc5780820380516001836020036101000a031916815260200191505b50868103825287818151815260200191508051906020019080838360005b838110156105f55780820151818401526020810190506105da565b50505050905090810190601f1680156106225780820380516001836020036101000a031916815260200191505b509a505050505050505050505060405180910390f35b34801561064457600080fd5b506106fe6004803603602081101561065b57600080fd5b810190808035906020019064010000000081111561067857600080fd5b82018360208201111561068a57600080fd5b803590602001918460018302840111640100000000831117156106ac57600080fd5b91908080601f016020809104026020016040519081016040528093929190818152602001838380828437600081840152601f19601f8201169050808301925050505050505091929192905050506121d8565b6040518080602001806020018060200180602001858103855289818151815260200191508051906020019080838360005b8381101561074a57808201518184015260208101905061072f565b50505050905090810190601f1680156107775780820380516001836020036101000a031916815260200191505b50858103845288818151815260200191508051906020019080838360005b838110156107b0578082015181840152602081019050610795565b50505050905090810190601f1680156107dd5780820380516001836020036101000a031916815260200191505b50858103835287818151815260200191508051906020019080838360005b838110156108165780820151818401526020810190506107fb565b50505050905090810190601f1680156108435780820380516001836020036101000a031916815260200191505b50858103825286818151815260200191508051906020019080838360005b8381101561087c578082015181840152602081019050610861565b50505050905090810190601f1680156108a95780820380516001836020036101000a031916815260200191505b509850505050505050505060405180910390f35b3480156108c957600080fd5b50610c76600480360360c08110156108e057600080fd5b81019080803590602001906401000000008111156108fd57600080fd5b82018360208201111561090f57600080fd5b8035906020019184600183028401116401000000008311171561093157600080fd5b91908080601f016020809104026020016040519081016040528093929190818152602001838380828437600081840152601f19601f8201169050808301925050505050505091929192908035906020019064010000000081111561099457600080fd5b8201836020820111156109a657600080fd5b803590602001918460018302840111640100000000831117156109c857600080fd5b91908080601f016020809104026020016040519081016040528093929190818152602001838380828437600081840152601f19601f82011690508083019250505050505050919291929080359060200190640100000000811115610a2b57600080fd5b820183602082011115610a3d57600080fd5b80359060200191846001830284011164010000000083111715610a5f57600080fd5b91908080601f016020809104026020016040519081016040528093929190818152602001838380828437600081840152601f19601f82011690508083019250505050505050919291929080359060200190640100000000811115610ac257600080fd5b820183602082011115610ad457600080fd5b80359060200191846001830284011164010000000083111715610af657600080fd5b91908080601f016020809104026020016040519081016040528093929190818152602001838380828437600081840152601f19601f82011690508083019250505050505050919291929080359060200190640100000000811115610b5957600080fd5b820183602082011115610b6b57600080fd5b80359060200191846001830284011164010000000083111715610b8d57600080fd5b91908080601f016020809104026020016040519081016040528093929190818152602001838380828437600081840152601f19601f82011690508083019250505050505050919291929080359060200190640100000000811115610bf057600080fd5b820183602082011115610c0257600080fd5b80359060200191846001830284011164010000000083111715610c2457600080fd5b91908080601f016020809104026020016040519081016040528093929190818152602001838380828437600081840152601f19601f820116905080830192505050505050509192919290505050612615565b005b348015610c8457600080fd5b50611031600480360360c0811015610c9b57600080fd5b8101908080359060200190640100000000811115610cb857600080fd5b820183602082011115610cca57600080fd5b80359060200191846001830284011164010000000083111715610cec57600080fd5b91908080601f016020809104026020016040519081016040528093929190818152602001838380828437600081840152601f19601f82011690508083019250505050505050919291929080359060200190640100000000811115610d4f57600080fd5b820183602082011115610d6157600080fd5b80359060200191846001830284011164010000000083111715610d8357600080fd5b91908080601f016020809104026020016040519081016040528093929190818152602001838380828437600081840152601f19601f82011690508083019250505050505050919291929080359060200190640100000000811115610de657600080fd5b820183602082011115610df857600080fd5b80359060200191846001830284011164010000000083111715610e1a57600080fd5b91908080601f016020809104026020016040519081016040528093929190818152602001838380828437600081840152601f19601f82011690508083019250505050505050919291929080359060200190640100000000811115610e7d57600080fd5b820183602082011115610e8f57600080fd5b80359060200191846001830284011164010000000083111715610eb157600080fd5b91908080601f016020809104026020016040519081016040528093929190818152602001838380828437600081840152601f19601f82011690508083019250505050505050919291929080359060200190640100000000811115610f1457600080fd5b820183602082011115610f2657600080fd5b80359060200191846001830284011164010000000083111715610f4857600080fd5b91908080601f016020809104026020016040519081016040528093929190818152602001838380828437600081840152601f19601f82011690508083019250505050505050919291929080359060200190640100000000811115610fab57600080fd5b820183602082011115610fbd57600080fd5b80359060200191846001830284011164010000000083111715610fdf57600080fd5b91908080601f016020809104026020016040519081016040528093929190818152602001838380828437600081840152601f19601f820116905080830192505050505050509192919290505050612948565b005b34801561103f57600080fd5b506110f96004803603602081101561105657600080fd5b810190808035906020019064010000000081111561107357600080fd5b82018360208201111561108557600080fd5b803590602001918460018302840111640100000000831117156110a757600080fd5b91908080601f016020809104026020016040519081016040528093929190818152602001838380828437600081840152601f19601f820116905080830192505050505050509192919290505050612c7b565b60405180806020018060200180602001806020018060200186810386528b818151815260200191508051906020019080838360005b8381101561114957808201518184015260208101905061112e565b50505050905090810190601f1680156111765780820380516001836020036101000a031916815260200191505b5086810385528a818151815260200191508051906020019080838360005b838110156111af578082015181840152602081019050611194565b50505050905090810190601f1680156111dc5780820380516001836020036101000a031916815260200191505b50868103845289818151815260200191508051906020019080838360005b838110156112155780820151818401526020810190506111fa565b50505050905090810190601f1680156112425780820380516001836020036101000a031916815260200191505b50868103835288818151815260200191508051906020019080838360005b8381101561127b578082015181840152602081019050611260565b50505050905090810190601f1680156112a85780820380516001836020036101000a031916815260200191505b50868103825287818151815260200191508051906020019080838360005b838110156112e15780820151818401526020810190506112c6565b50505050905090810190601f16801561130e5780820380516001836020036101000a031916815260200191505b509a505050505050505050505060405180910390f35b34801561133057600080fd5b50611646600480360360a081101561134757600080fd5b810190808035906020019064010000000081111561136457600080fd5b82018360208201111561137657600080fd5b8035906020019184600183028401116401000000008311171561139857600080fd5b91908080601f016020809104026020016040519081016040528093929190818152602001838380828437600081840152601f19601f820116905080830192505050505050509192919290803590602001906401000000008111156113fb57600080fd5b82018360208201111561140d57600080fd5b8035906020019184600183028401116401000000008311171561142f57600080fd5b91908080601f016020809104026020016040519081016040528093929190818152602001838380828437600081840152601f19601f8201169050808301925050505050505091929192908035906020019064010000000081111561149257600080fd5b8201836020820111156114a457600080fd5b803590602001918460018302840111640100000000831117156114c657600080fd5b91908080601f016020809104026020016040519081016040528093929190818152602001838380828437600081840152601f19601f8201169050808301925050505050505091929192908035906020019064010000000081111561152957600080fd5b82018360208201111561153b57600080fd5b8035906020019184600183028401116401000000008311171561155d57600080fd5b91908080601f016020809104026020016040519081016040528093929190818152602001838380828437600081840152601f19601f820116905080830192505050505050509192919290803590602001906401000000008111156115c057600080fd5b8201836020820111156115d257600080fd5b803590602001918460018302840111640100000000831117156115f457600080fd5b91908080601f016020809104026020016040519081016040528093929190818152602001838380828437600081840152601f19601f8201169050808301925050505050505091929192905050506131c8565b005b60606001821415611761576000836040518082805190602001908083835b60208310151561168b5780518252602082019150602081019050602083039250611666565b6001836020036101000a03801982511681845116808217855250505050505090500191505090815260200160405180910390206005018054600181600116156101000203166002900480601f0160208091040260200160405190810160405280929190818152602001828054600181600116156101000203166002900480156117555780601f1061172a57610100808354040283529160200191611755565b820191906000526020600020905b81548152906001019060200180831161173857829003601f168201915b505050505090506119c8565b6002821415611878576000836040518082805190602001908083835b6020831015156117a2578051825260208201915060208101905060208303925061177d565b6001836020036101000a03801982511681845116808217855250505050505090500191505090815260200160405180910390206004018054600181600116156101000203166002900480601f01602080910402602001604051908101604052809291908181526020018280546001816001161561010002031660029004801561186c5780601f106118415761010080835404028352916020019161186c565b820191906000526020600020905b81548152906001019060200180831161184f57829003601f168201915b505050505090506119c8565b600382141561198f576000836040518082805190602001908083835b6020831015156118b95780518252602082019150602081019050602083039250611894565b6001836020036101000a03801982511681845116808217855250505050505090500191505090815260200160405180910390206003018054600181600116156101000203166002900480601f0160208091040260200160405190810160405280929190818152602001828054600181600116156101000203166002900480156119835780601f1061195857610100808354040283529160200191611983565b820191906000526020600020905b81548152906001019060200180831161196657829003601f168201915b505050505090506119c8565b6040805190810160405280600981526020017f756e646566696e6564000000000000000000000000000000000000000000000081525090505b92915050565b6001821415611a5b57806000846040518082805190602001908083835b602083101515611a1057805182526020820191506020810190506020830392506119eb565b6001836020036101000a03801982511681845116808217855250505050505090500191505090815260200160405180910390206005019080519060200190611a59929190613477565b505b6002821415611ae857806000846040518082805190602001908083835b602083101515611a9d5780518252602082019150602081019050602083039250611a78565b6001836020036101000a03801982511681845116808217855250505050505090500191505090815260200160405180910390206004019080519060200190611ae6929190613477565b505b6003821415611b7557806000846040518082805190602001908083835b602083101515611b2a5780518252602082019150602081019050602083039250611b05565b6001836020036101000a03801982511681845116808217855250505050505090500191505090815260200160405180910390206003019080519060200190611b73929190613477565b505b7fd9b0f0df633a148a4fe7319855c86248356bd58d003cabe1fc554c4a32eee836838383604051808060200184815260200180602001838103835286818151815260200191508051906020019080838360005b83811015611be3578082015181840152602081019050611bc8565b50505050905090810190601f168015611c105780820380516001836020036101000a031916815260200191505b50838103825284818151815260200191508051906020019080838360005b83811015611c49578082015181840152602081019050611c2e565b50505050905090810190601f168015611c765780820380516001836020036101000a031916815260200191505b509550505050505060405180910390a1505050565b60608060608060606000866040518082805190602001908083835b602083101515611ccb5780518252602082019150602081019050602083039250611ca6565b6001836020036101000a03801982511681845116808217855250505050505090500191505090815260200160405180910390206001016000876040518082805190602001908083835b602083101515611d395780518252602082019150602081019050602083039250611d14565b6001836020036101000a0380198251168184511680821785525050505050509050019150509081526020016040518091039020600c016000886040518082805190602001908083835b602083101515611da75780518252602082019150602081019050602083039250611d82565b6001836020036101000a03801982511681845116808217855250505050505090500191505090815260200160405180910390206009016000896040518082805190602001908083835b602083101515611e155780518252602082019150602081019050602083039250611df0565b6001836020036101000a038019825116818451168082178552505050505050905001915050908152602001604051809103902060060160008a6040518082805190602001908083835b602083101515611e835780518252602082019150602081019050602083039250611e5e565b6001836020036101000a0380198251168184511680821785525050505050509050019150509081526020016040518091039020601101848054600181600116156101000203166002900480601f016020809104026020016040519081016040528092919081815260200182805460018160011615610100020316600290048015611f4e5780601f10611f2357610100808354040283529160200191611f4e565b820191906000526020600020905b815481529060010190602001808311611f3157829003601f168201915b50505050509450838054600181600116156101000203166002900480601f016020809104026020016040519081016040528092919081815260200182805460018160011615610100020316600290048015611fea5780601f10611fbf57610100808354040283529160200191611fea565b820191906000526020600020905b815481529060010190602001808311611fcd57829003601f168201915b50505050509350828054600181600116156101000203166002900480601f0160208091040260200160405190810160405280929190818152602001828054600181600116156101000203166002900480156120865780601f1061205b57610100808354040283529160200191612086565b820191906000526020600020905b81548152906001019060200180831161206957829003601f168201915b50505050509250818054600181600116156101000203166002900480601f0160208091040260200160405190810160405280929190818152602001828054600181600116156101000203166002900480156121225780601f106120f757610100808354040283529160200191612122565b820191906000526020600020905b81548152906001019060200180831161210557829003601f168201915b50505050509150808054600181600116156101000203166002900480601f0160208091040260200160405190810160405280929190818152602001828054600181600116156101000203166002900480156121be5780601f10612193576101008083540402835291602001916121be565b820191906000526020600020905b8154815290600101906020018083116121a157829003601f168201915b505050505090509450945094509450945091939590929450565b6060806060806000856040518082805190602001908083835b60208310151561221657805182526020820191506020810190506020830392506121f1565b6001836020036101000a03801982511681845116808217855250505050505090500191505090815260200160405180910390206002016000866040518082805190602001908083835b602083101515612284578051825260208201915060208101905060208303925061225f565b6001836020036101000a0380198251168184511680821785525050505050509050019150509081526020016040518091039020600d016000876040518082805190602001908083835b6020831015156122f257805182526020820191506020810190506020830392506122cd565b6001836020036101000a0380198251168184511680821785525050505050509050019150509081526020016040518091039020600a016000886040518082805190602001908083835b602083101515612360578051825260208201915060208101905060208303925061233b565b6001836020036101000a0380198251168184511680821785525050505050509050019150509081526020016040518091039020600701838054600181600116156101000203166002900480601f01602080910402602001604051908101604052809291908181526020018280546001816001161561010002031660029004801561242b5780601f106124005761010080835404028352916020019161242b565b820191906000526020600020905b81548152906001019060200180831161240e57829003601f168201915b50505050509350828054600181600116156101000203166002900480601f0160208091040260200160405190810160405280929190818152602001828054600181600116156101000203166002900480156124c75780601f1061249c576101008083540402835291602001916124c7565b820191906000526020600020905b8154815290600101906020018083116124aa57829003601f168201915b50505050509250818054600181600116156101000203166002900480601f0160208091040260200160405190810160405280929190818152602001828054600181600116156101000203166002900480156125635780601f1061253857610100808354040283529160200191612563565b820191906000526020600020905b81548152906001019060200180831161254657829003601f168201915b50505050509150808054600181600116156101000203166002900480601f0160208091040260200160405190810160405280929190818152602001828054600181600116156101000203166002900480156125ff5780601f106125d4576101008083540402835291602001916125ff565b820191906000526020600020905b8154815290600101906020018083116125e257829003601f168201915b5050505050905093509350935093509193509193565b846000876040518082805190602001908083835b60208310151561264e5780518252602082019150602081019050602083039250612629565b6001836020036101000a03801982511681845116808217855250505050505090500191505090815260200160405180910390206001019080519060200190612697929190613477565b50826000876040518082805190602001908083835b6020831015156126d157805182526020820191506020810190506020830392506126ac565b6001836020036101000a0380198251168184511680821785525050505050509050019150509081526020016040518091039020600c01908051906020019061271a929190613477565b50816000876040518082805190602001908083835b602083101515612754578051825260208201915060208101905060208303925061272f565b6001836020036101000a0380198251168184511680821785525050505050509050019150509081526020016040518091039020600901908051906020019061279d929190613477565b50806000876040518082805190602001908083835b6020831015156127d757805182526020820191506020810190506020830392506127b2565b6001836020036101000a03801982511681845116808217855250505050505090500191505090815260200160405180910390206006019080519060200190612820929190613477565b50836000876040518082805190602001908083835b60208310151561285a5780518252602082019150602081019050602083039250612835565b6001836020036101000a038019825116818451168082178552505050505050905001915050908152602001604051809103902060110190805190602001906128a3929190613477565b507fa5e5df1b20cfee00f20330f3b591592f6c22c05c855ac7245839cef3545f7204866040518080602001828103825283818151815260200191508051906020019080838360005b838110156129065780820151818401526020810190506128eb565b50505050905090810190601f1680156129335780820380516001836020036101000a031916815260200191505b509250505060405180910390a1505050505050565b846000876040518082805190602001908083835b602083101515612981578051825260208201915060208101905060208303925061295c565b6001836020036101000a038019825116818451168082178552505050505050905001915050908152602001604051809103902060100190805190602001906129ca929190613477565b50836000876040518082805190602001908083835b602083101515612a0457805182526020820191506020810190506020830392506129df565b6001836020036101000a0380198251168184511680821785525050505050509050019150509081526020016040518091039020600f019080519060200190612a4d929190613477565b50826000876040518082805190602001908083835b602083101515612a875780518252602082019150602081019050602083039250612a62565b6001836020036101000a0380198251168184511680821785525050505050509050019150509081526020016040518091039020600b019080519060200190612ad0929190613477565b50816000876040518082805190602001908083835b602083101515612b0a5780518252602082019150602081019050602083039250612ae5565b6001836020036101000a03801982511681845116808217855250505050505090500191505090815260200160405180910390206008019080519060200190612b53929190613477565b50806000876040518082805190602001908083835b602083101515612b8d5780518252602082019150602081019050602083039250612b68565b6001836020036101000a0380198251168184511680821785525050505050509050019150509081526020016040518091039020600e019080519060200190612bd6929190613477565b507f49a8e1507a6f693a113e03a6b7d2ca032ebdf2908f1fcbc1b021ed7845cadf8a866040518080602001828103825283818151815260200191508051906020019080838360005b83811015612c39578082015181840152602081019050612c1e565b50505050905090810190601f168015612c665780820380516001836020036101000a031916815260200191505b509250505060405180910390a1505050505050565b60608060608060606000866040518082805190602001908083835b602083101515612cbb5780518252602082019150602081019050602083039250612c96565b6001836020036101000a03801982511681845116808217855250505050505090500191505090815260200160405180910390206010016000876040518082805190602001908083835b602083101515612d295780518252602082019150602081019050602083039250612d04565b6001836020036101000a0380198251168184511680821785525050505050509050019150509081526020016040518091039020600f016000886040518082805190602001908083835b602083101515612d975780518252602082019150602081019050602083039250612d72565b6001836020036101000a0380198251168184511680821785525050505050509050019150509081526020016040518091039020600b016000896040518082805190602001908083835b602083101515612e055780518252602082019150602081019050602083039250612de0565b6001836020036101000a038019825116818451168082178552505050505050905001915050908152602001604051809103902060080160008a6040518082805190602001908083835b602083101515612e735780518252602082019150602081019050602083039250612e4e565b6001836020036101000a0380198251168184511680821785525050505050509050019150509081526020016040518091039020600e01848054600181600116156101000203166002900480601f016020809104026020016040519081016040528092919081815260200182805460018160011615610100020316600290048015612f3e5780601f10612f1357610100808354040283529160200191612f3e565b820191906000526020600020905b815481529060010190602001808311612f2157829003601f168201915b50505050509450838054600181600116156101000203166002900480601f016020809104026020016040519081016040528092919081815260200182805460018160011615610100020316600290048015612fda5780601f10612faf57610100808354040283529160200191612fda565b820191906000526020600020905b815481529060010190602001808311612fbd57829003601f168201915b50505050509350828054600181600116156101000203166002900480601f0160208091040260200160405190810160405280929190818152602001828054600181600116156101000203166002900480156130765780601f1061304b57610100808354040283529160200191613076565b820191906000526020600020905b81548152906001019060200180831161305957829003601f168201915b50505050509250818054600181600116156101000203166002900480601f0160208091040260200160405190810160405280929190818152602001828054600181600116156101000203166002900480156131125780601f106130e757610100808354040283529160200191613112565b820191906000526020600020905b8154815290600101906020018083116130f557829003601f168201915b50505050509150808054600181600116156101000203166002900480601f0160208091040260200160405190810160405280929190818152602001828054600181600116156101000203166002900480156131ae5780601f10613183576101008083540402835291602001916131ae565b820191906000526020600020905b81548152906001019060200180831161319157829003601f168201915b505050505090509450945094509450945091939590929450565b836000866040518082805190602001908083835b60208310151561320157805182526020820191506020810190506020830392506131dc565b6001836020036101000a0380198251168184511680821785525050505050509050019150509081526020016040518091039020600201908051906020019061324a929190613477565b50826000866040518082805190602001908083835b602083101515613284578051825260208201915060208101905060208303925061325f565b6001836020036101000a0380198251168184511680821785525050505050509050019150509081526020016040518091039020600d0190805190602001906132cd929190613477565b50816000866040518082805190602001908083835b60208310151561330757805182526020820191506020810190506020830392506132e2565b6001836020036101000a0380198251168184511680821785525050505050509050019150509081526020016040518091039020600a019080519060200190613350929190613477565b50806000866040518082805190602001908083835b60208310151561338a5780518252602082019150602081019050602083039250613365565b6001836020036101000a038019825116818451168082178552505050505050905001915050908152602001604051809103902060070190805190602001906133d3929190613477565b507f99d100a02e30d6fbe9128c70416db30063e0eb352d3961159f35ab3471a37fc3856040518080602001828103825283818151815260200191508051906020019080838360005b8381101561343657808201518184015260208101905061341b565b50505050905090810190601f1680156134635780820380516001836020036101000a031916815260200191505b509250505060405180910390a15050505050565b828054600181600116156101000203166002900490600052602060002090601f016020900481019282601f106134b857805160ff19168380011785556134e6565b828001600101855582156134e6579182015b828111156134e55782518255916020019190600101906134ca565b5b5090506134f391906134f7565b5090565b61351991905b808211156135155760008160009055506001016134fd565b5090565b9056fea165627a7a72305820d9dbaef968e70afa64562a2362404f41083085046c925bb7b4bf3323cc7850240029",
  "source": "pragma solidity ^0.5.0;\n\n\ncontract OrderRegistry {\n  struct Order {\n    string supplier_name;\n    string mfg_name;\n    string dist_name;\n\n    string supplier_report;\n    string mfg_report;\n    string dist_report;\n\n    string supplier_quantity;\n    string mfg_quantity;\n    string dist_quantity;\n\n    string supplier_value;\n    string mfg_value;\n    string dist_value;\n\n    string supplier_date;\n    string mfg_date;\n    string dist_date;\n\n    string thresh_temp;\n    string product_name;\n    string raw_material_name;\n\n  }\n\n  mapping(string=>Order) registry;\n\n  event OrderGenerated(string orderno);\n  event MfgTrigger(string orderno);\n  event SupplyTrigger(string orderno);\n  event ReportSubmit(string orderno, uint category, string report);\n\n  function createOrder(string memory orderno, string memory product, string memory temp, string memory value, string memory quantity, string memory delivery) public {\n    registry[orderno].product_name = product;\n    registry[orderno].thresh_temp = temp;\n    registry[orderno].dist_value = value;\n    registry[orderno].dist_quantity = quantity;\n    registry[orderno].dist_date = delivery;\n    emit OrderGenerated(orderno);\n  }\n\n  function setDistValues(string memory orderno, string memory name, string memory delivery, string memory value, string memory quantity) public {\n    registry[orderno].dist_name = name;\n    registry[orderno].mfg_date = delivery;\n    registry[orderno].mfg_value = value;\n    registry[orderno].mfg_quantity = quantity;\n    emit MfgTrigger(orderno);\n  }\n\n  function setMfgValues(string memory orderno, string memory name, string memory material, string memory delivery, string memory value, string memory quantity) public {\n    registry[orderno].mfg_name = name;\n    registry[orderno].supplier_date = delivery;\n    registry[orderno].supplier_value = value;\n    registry[orderno].supplier_quantity = quantity;\n    registry[orderno].raw_material_name = material;\n    emit SupplyTrigger(orderno);\n  }\n\n  function setReport(string memory orderno,uint category, string memory report) public {\n    if(category == 1) {\n      registry[orderno].dist_report = report;\n    }\n    if( category == 2 ) {\n      registry[orderno].mfg_report = report;\n    }\n    if( category == 3 ) {\n      registry[orderno].supplier_report = report;\n    }\n    emit ReportSubmit(orderno, category, report);\n  }\n\n  function getReport(string memory orderno,uint category) public view returns(string memory) {\n    if(category == 1) {\n      return registry[orderno].dist_report;\n    }\n    if( category == 2 ) {\n      return registry[orderno].mfg_report;\n    }\n    if( category == 3 ) {\n      return registry[orderno].supplier_report;\n    }\n    return \"undefined\";\n  }\n\n  function fetchInitialDetails(string memory orderno) public view returns(string memory, string memory, string memory,string memory, string memory) {\n    return (registry[orderno].product_name,\n            registry[orderno].thresh_temp,\n            registry[orderno].dist_value,\n            registry[orderno].dist_quantity,\n            registry[orderno].dist_date);\n  }\n\n  function getDistValues(string memory orderno) public view returns(string memory, string memory, string memory, string memory) {\n    return (registry[orderno].dist_name , registry[orderno].mfg_date,\n            registry[orderno].mfg_value, registry[orderno].mfg_quantity);\n  }\n\n  function getMfgDetails(string memory orderno) public view returns(string memory,string memory,string memory,string memory,string memory) {\n    return (registry[orderno].mfg_name,\n    registry[orderno].supplier_date,\n    registry[orderno].supplier_value,\n    registry[orderno].supplier_quantity,\n    registry[orderno].raw_material_name);\n  }\n\n}\n",
  "sourcePath": "D:/New folder (3)/project management/project-management-master/contracts/OrderRegistry.sol",
  "compiler": {
    "name": "solc",
    "version": "0.5.0+commit.1d4f565a.Emscripten.clang"
  },
  "schemaVersion": "3.0.1",
  "updatedAt": "2020-06-16T06:53:58.850Z",
  "devdoc": {
    "methods": {}
  },
  "userdoc": {
    "methods": {}
  }
}